:020000040800F2
:100000007007002049010008510100085301000851
:1000100055010008570100085901000800000000C0
:100020000000000000000000000000005B0100086C
:100030005D010008000000005F010008E9120008EF
:100040006301000863010008630100086301000800
:100050006301000863010008850A0008690B0008B5
:10006000950B0008C10B0008ED0B000863010008A8
:1000700063010008630100086301000863010008D0
:1000800063010008630100086301000863010008C0
:10009000630100086301000863010008190C0008EF
:1000A000891300088F1300088D1300088B130008B4
:1000B0009113000895130008C51300086301000898
:1000C0006301000863010008630100086301000880
:1000D000630100086301000863010008D9170008E4
:1000E000B10A000863010008630100086301000809
:1000F0006301000863010008630100086301000850
:100100006301000863010008E113000863010008AF
:1001100063010008630100080114000829140008A5
:10012000630100086301000863010008630100081F
:10013000DFF810D000F004FA00480047891F0008DB
:10014000AFF300807007002006488047064800474C
:10015000FEE7FEE7FEE7FEE7FEE7FEE7FEE7FEE777
:10016000FEE7FEE7051300083101000840EA01033D
:100170009B0703D009E008C9121F08C0042AFAD25D
:1001800003E011F8013B00F8013B521EF9D2704721
:10019000D2B201E000F8012B491EFBD270470022C9
:1001A000F6E710B513460A4604461946FFF7F0FF76
:1001B000204610BD421C10F8011B0029FBD1801AFB
:1001C000704780EA010210B502F00043400022D0DF
:1001D0004A001FD0010E01EB1261C0F35600C2F3BA
:1001E000560240F4000042F40002A0FB022000048A
:1001F0007F39140400D0401C50EA124001D4400062
:10020000491EC2B20C0604EBD010401C4008802AE4
:1002100002D003E0002010BD20F00100002900DA28
:100220000020184310BD30B480EA010202F00045FE
:1002300030F0004221F0004013D090B1C30DD40D36
:10024000C2F31601C0F31600E41A41F4000140F4B1
:1002500000027D34914201D3641C00E04900002C6F
:1002600002DA30BC002070474FF4000000239142B6
:1002700001D3891A034340084FEA4101F7D151B134
:10028000914202D14FF0004105E002D24FF001014E
:1002900001E06FF0010103EBC450284430BC00F0D2
:1002A000BAB82DE9FE4F81EA030404F0004421F0BE
:1002B000004100944FF0000B23F0004350EA01048A
:1002C0005ED052EA03045BD0C3F30A54C1F30A556B
:1002D0002C44A4F2F3340194A0FB0254C1F31301A3
:1002E00041F48011C3F3130343F4801301FB024470
:1002F00000FB034E840A970A44EA815447EA835775
:10030000A4FB076802958D0A05FB07854FEA932C2D
:1003100004FB0C542705029D4FEA065847EA16379E
:10032000B5EB08056EEB070C870E920E47EA8117B6
:1003300042EA8312A7FB0201B6EB0B0164EB000457
:100340002B0D43EA0C335E1844EB1C50DA46514641
:10035000E7FB0201C5F313044FEA0B3343EA1453DE
:100360004FEA0432019C43EA0603A4F10C04029410
:10037000009CCDE900B400F094F803B0BDE8F08F24
:1003800000200146F9E796230022114600F04CB800
:1003900020F00040C10DC0F3160040F400007F299A
:1003A00001DA00207047962903DCC1F19601C840AC
:1003B000704796398840704700F0004230F00040A6
:1003C0000AD0C10D01F56071C0F3160042EA015177
:1003D000C20840071143704700200146704701F0F2
:1003E000004330B421F0004150EA010206D00A0D6A
:1003F000A2F56072C1F31301002A02DC30BC0020B8
:100400007047440F44EAC104C100E01830BC00EB5F
:10041000C250AFF300800029A8BF7047401C4900BC
:1004200008BF20F00100704710B4B0FA80FC00FA59
:100430000CF050EA010404BF10BC704749B1CCF184
:10044000200421FA04F411FA0CF118BF0121214310
:100450000843A3EB0C01CB1D4FEA00614FEA1020CB
:1004600042BF002010BC704700EBC350104400296D
:10047000A4BF10BC7047401C490008BF20F0010019
:1004800010BC704710B5141E73F1000408DA401C4C
:1004900041F1000192185B411A4301D120F00100A3
:1004A00010BD2DE9F04D92469B4611B1B1FA81F293
:1004B00002E0B0FA80F22032904600F053F8044691
:1004C0000F4640EA0A0041EA0B0153465A460843E8
:1004D00013D0114653EA010019D0C8F1400250462A
:1004E00000F04FF805460E4650465946424600F089
:1004F00039F8084305D0012004E020463946BDE81C
:10050000F08D0020054346EAE0762C4337430A98F5
:100510006305E40AA0EB08000022FD0A44EA475400
:100520000A3002D500200146E9E7010510196941AA
:10053000DDE9084500196941BDE8F04DA2E700007A
:10054000064C074D06E0E06840F0010394E8070020
:1005500098471034AC42F6D3FFF7EEFD442500086F
:1005600064250008202A04DB203A00FA02F100206A
:1005700070479140C2F1200320FA03F319439040E1
:100580007047202A04DB203A21FA02F0002170474C
:1005900021FA02F3D040C2F12002914008431946EB
:1005A0007047000030B587B001214FF4067000F0AD
:1005B00049FD0125ADF8145000248DF8174005A918
:1005C000174800F0CDFB2020ADF8140005A9154810
:1005D00000F0C6FB4FF46020CDE902048DF8044022
:1005E00000948DF80540104C8DF810506946204657
:1005F00000F058F80121204600F032F8204600F0C3
:10060000AFF8204600F047F80028FAD1204600F065
:10061000B6F8204600F02EF80028FAD107B030BD19
:10062000000C0140001001400024014010B50B4CAB
:10063000014606230122204600F058F801212046F9
:1006400000F093F80221204600F01EF80028F9D0AF
:100650002046BDE8104000F014B80000002401401E
:100660000029816802D041F0010101E021F001017F
:1006700081607047014600208968490700D5012044
:100680007047C06C80B270470246002012680A4270
:1006900000D001207047014600208968090700D575
:1006A0000120704710B542680E4B0C791A400B6858
:1006B00042EA04221343436082680B4B1A40D1E99B
:1006C000024323434C7942EA440213438360C26AE3
:1006D000097C22F47002491EC9B242EA0151C1628A
:1006E00010BD0000FFFEF0FFFDF7F1FF70B507261B
:1006F00009290AD9C568A1F10A0404EB4404A640FB
:10070000B543A3401D43C56007E0056901EB410403
:10071000A640B543A3401D4305611F23072A09D204
:10072000446B521E02EB820293409C4391400C4367
:10073000446370BD0D2A09D2046BD21F02EB820202
:1007400093409C4391400C43046370BDC46A0D3ACE
:1007500002EB820293409C4391400C43C46270BD03
:10076000816841F00801816070470029816802D0EA
:1007700041F4A00101E021F4A0018160704781688B
:1007800041F00401816070472DE9F041234F054697
:100790003E6810280CD006DC022D0BD0042D0FD0A3
:1007A000082D10D10EE0202D06D0402D0BD105E0F4
:1007B000012408E0022406E0042404E0062402E008
:1007C000032400E005240146602000F058F91FE0F2
:1007D000642001F07FFD00F0DFF8A04215D0402D2D
:1007E00002D0082D14D108E0642001F073FD6A20C6
:1007F00000F037F900070BD507E0642001F06AFD2F
:100800006D2000F02EF9C00702D00120BDE8F08174
:100810003868801B0A28DBD30020F7E72800002077
:100820002DE9F04100273D463C46662000F019F9CD
:10083000C0F340186D2000F014F906466A2000F05D
:1008400010F9B8F1000F03D0F143C043CEB2C0B2EB
:10085000310600D52025710601D545F00105B10608
:1008600001D545F00105F10602D545F0100510242B
:10087000310703D545F0080544F00804710703D596
:1008800045F0040544F00404B10703D545F0020522
:1008900044F00204F10703D045F0010544F00104DF
:1008A000810602D5022744F08004C10603D547F033
:1008B000010744F04004000703D547F0040744F063
:1008C000200439466A2000F0DAF829466B2000F04F
:1008D000D6F8B8F1000F01D0E043C4B22046BDE81D
:1008E000F08110B56E2000F0BCF8044602216C20A7
:1008F00000F0C5F8204610BD0146652000F0BFB8E5
:1009000070B500F01F040D46662000F0AAF820F034
:100910001F012143662000F0B2F805F01F04672094
:1009200000F09FF820F01F012143BDE870406720D0
:1009300000F0A5B82DE9F04115460E460746002403
:1009400006E0E019315DC0B200F099F8641CE4B231
:10095000AC42F6D30120BDE8F0810146682000F0EA
:100960008EB810B504460D2000F07BF814B140F0AD
:10097000E00101E020F0E001BDE810400D2000F0B2
:100980007EB810B5692000F06CF820F00501BDE8D4
:100990001040692000F073B810B5612000F061F8D4
:1009A00000F00F0010BD0820FFF7EEBE1020FFF78B
:1009B000EBBE0220FFF7E8BE10B500F05CF8142093
:1009C00001F07DFC0220FFF7DFFE612000F049F816
:1009D00020F0200040F01001612000F050F862206B
:1009E00000F03FF840F02001622000F048F80020BD
:1009F000FFF7B7FFBDE81040FFF712BF10B50B4C73
:100A0000042303225903204600F0F8F904230322AB
:100A10001903204600F0F2F90423032219022046AC
:100A200000F0ECF9BDE8104001F050B800140140AE
:100A300070B5482000F015F80546AA21482000F0BE
:100A40001EF8482000F00DF804462946482000F022
:100A500016F8AA2C01D0002070BD012070BD01F055
:100A6000C5B808B5FF218DF80010694601F064F89B
:100A70009DF8000008BDFF217F20AFF3008001F04A
:100A80006BB9000008480168C9070BD00649143942
:100A90000968C90706D00121016004488068002860
:100AA00000D000477047000014040140E00100201E
:100AB00070B52A4E30682A4D2A4C400508D5286862
:100AC000400505D528153060D4F8800000B1804776
:100AD0003068000509D52868000506D54FF4006088
:100AE0003060D4F88C0000B180473068C00409D56C
:100AF0002868C00406D54FF480503060D4F89800C0
:100B000000B180473068800409D52868800406D584
:100B10004FF400503060D4F8A40000B18047306832
:100B2000400409D52868400406D54FF48040306061
:100B3000D4F8B00000B18047306800040CD52868B4
:100B4000000409D54FF400403060D4F8BC00002800
:100B500002D0BDE87040004770BD000014040140A1
:100B600000040140E00100200848016889070BD516
:100B7000064914390968890706D50221016004482D
:100B80004069002800D0004770470000140401406D
:100B9000E00100200848016849070BD506491439CF
:100BA0000968490706D5042101600448006A002845
:100BB00000D000477047000014040140E00100200D
:100BC0000848016809070BD506491439096809075F
:100BD00006D5082101600448C06A002800D00047FB
:100BE0007047000014040140E0010020084801683B
:100BF000C9060BD5064914390968C90606D510215E
:100C000001600448806B002800D000477047000056
:100C100014040140E001002070B5204E3068204DE2
:100C2000204C800607D52868800604D52020306037
:100C3000606C00B180473068400607D528684006E0
:100C400004D540203060206D00B180473068000638
:100C500007D52868000604D580203060E06D00B11B
:100C600080473068C00508D52868C00505D54FF411
:100C700080703060A06E00B18047306880050BD571
:100C80002868800508D54FF400703060606F002838
:100C900002D0BDE87040004770BD00001404014060
:100CA00000040140E001002010B50121084600F0D9
:100CB000C9F90121042000F0C5F90121082000F044
:100CC000C1F90121102000F0BDF90121202000F020
:100CD000B9F90121402000F0B5F90121042000F00C
:100CE00099F90121082000F095F90121102000F068
:100CF00091F9184C042303225903204600F07EF892
:100D0000042303221903204600F078F80423032269
:100D10001902204600F072F80F4C10230322022122
:100D2000204600F06BF8102303220121204600F03A
:100D300065F80A4C042303222021204600F05EF8C7
:100D4000042303224021204600F058F8BDE810405B
:100D500001F0F0B900140140000801400018014002
:100D6000F0B5CC78002204F00F03E40601D58C78AE
:100D700023430C784FF00F0C14F0FF0F4FF0010ECF
:100D80001BD005680E880EFA02F42640A64210D148
:100D900096000CFA06F725EA070703FA06F5CE785F
:100DA0003D43282E02D0482E02D002E0446100E0EC
:100DB0000461521C082AE5D305600A88FF2A1CD961
:100DC0004468002202F108060EFA06F50E882E404D
:100DD000AE420ED196000CFA06F7BC4303FA06F7B2
:100DE000CE783C43282E00D14561CE78482E00D1E4
:100DF0000561521C082AE5D34460F0BD70B50F258B
:100E0000DC0600D4002203F00C041443002921D096
:100E1000FF290DD80E4602E024012D017608F207C5
:100E2000FAD00268AA4302600268224302600CE022
:100E30000A0A02E024012D015208D607FAD04268BE
:100E4000AA434260426822434260282B03D0482BC9
:100E500000D1016170BD416170BD10B500F052FA62
:100E6000FFF722FF00F00CF800F07AFAFFF79AFB88
:100E700000F058FC00F080FCBDE8104000F01CBC05
:100E8000F8B54FF4A06000F0BBF81E208DF800000C
:100E900002268DF8016000248DF8024001258DF8AE
:100EA0000350684600F07AF832208DF800008DF883
:100EB00001608DF802408DF80350684600F06EF82E
:100EC00036208DF800008DF801408DF802408DF835
:100ED0000350684600F062F814208DF800008DF889
:100EE00001608DF802508DF80350684600F056F806
:100EF00006208DF800008DF801608DF802408DF815
:100F00000350684600F04AF807208DF800008DF87D
:100F100001608DF802408DF80350684600F03EF8FD
:100F200008208DF800008DF801608DF802408DF8E2
:100F30000350684600F032F809208DF800008DF863
:100F400001608DF802408DF80350684600F026F8E5
:100F50000A208DF800008DF801608DF802408DF8B0
:100F60000350684600F01AF817208DF800008DF83D
:100F700001408DF802408DF80350684600F00EF8ED
:100F800028208DF800008DF801608DF802408DF862
:100F90000350684600F002F8F8BD000030B50F239A
:100FA000C27801780125F2B1144A126801F1E021FA
:100FB00002F4E062C2F5E062120AC2F10404D34016
:100FC0004278A24084781C401443220181F8002416
:100FD000007800F01F018D404009800000F1E02002
:100FE000C0F8005130BD01F01F0085404809800065
:100FF00000F1E020C0F8805130BD00000CED00E0B1
:101000000249084302490860704700000000FA05E1
:101010000CED00E0044A0029D16901D0014300E051
:101020008143D1617047000000100240044A00294A
:10103000116901D0014300E0814311617047000054
:1010400000100240044A0029916901D0014300E0E8
:10105000814391617047000000100240044A00295A
:10106000D16801D0014300E08143D16070470000A6
:1010700000100240F0B52C4B59682C4A11F00C01BD
:101080004FF00F0604D05400042903D0082903D0E0
:10109000026028E0046026E059685A6806EA914137
:1010A00002F480320D2901D0891C00E00621BAB17A
:1010B000DA6A12F4803FDA6A02F00F0202F10102EA
:1010C0000AD0DD6AC5F30317DD6A7F1CB4FBF7F4B1
:1010D000C5F30325AD1C6C43B4FBF2F24A43D7E7DA
:1010E000134A514301605968124A06EA1111545CCF
:1010F0000168E14041605C68072505EA1424145D3D
:1011000021FA04F484605C6805EAD424125DD140BD
:10111000C1605A68032303EA9232064B1B1F9A5C94
:10112000B1FBF2F10161F0BD0010024000127A0043
:1011300000093D000400002010B51520FFF7DCFB7E
:1011400019210420FFF7DCFB1920FFF706FC002023
:10115000FFF707FCBDE81040FFF728BC10B5FFF70C
:101160004DFCFFF729FC0C2217490020FFF7E2FB9A
:1011700015490C220C311046FFF7DCFB12490822FE
:1011800008391820FFF7D6FB0F4918221831202004
:10119000FFF7D0FB0C491D2230313820FFF7CAFB86
:1011A00009490B224D315520FFF7C4FB0920FFF7F9
:1011B00058FC20F0070040F002010920FFF75FFC17
:1011C000BDE81040FFF7B8BFEC24000870B50B4A2B
:1011D0000C460546126850040DD5FFF7EAFB214680
:1011E0002846FFF73CFCFFF77CFBFFF719FBFFF7F6
:1011F000DAFB012070BD002070BD00000814014022
:101200000CB500222E4800920192016841F4803111
:1012100001604FF4A063016801F40031019100996D
:10122000491C0091019911B900999942F3D10168C3
:10123000890342D50121019122490A6842F0100236
:101240000A600A6822F007020A600A6842F0020295
:101250000A604168416041684160416841F48061D1
:101260004160C16A184A1140C162C16A174A1143FC
:10127000C162016841F08061016001680901FCD52B
:10128000416821F47C114160416841F4E8114160FA
:10129000016841F08071016001688901FCD54168F5
:1012A00021F003014160416841F002014160416861
:1012B000C1F381010229FAD10CBD01920CBD0000DD
:1012C000001002400020024000F0FEFF3408010040
:1012D0004FF0E0210428086903D020F004000861E1
:1012E000704740F00400FAE704480168491C0160B7
:1012F00003480168491C0160704700002800002075
:101300003C000020124810B5016841F00101016065
:101310004168104A1140416001680F4A1140016064
:10132000016821F480210160416821F4FE014160DF
:10133000016821F0A05101604FF47F01816000211C
:10134000C162FFF75DFF05494FF00060086010BD06
:10135000001002400000FFF0FFFFF6FE08ED00E085
:101360004FF0E02006494161064AF02182F8141D41
:1013700000218161072101610420FFF7A9BF00005E
:101380003F1901000FE000E0FEE7FEE7FEE7FEE7A1
:101390007047000010B50A4C0121204600F02AF9E0
:1013A00000280BD00121204600F05FF801F026F85C
:1013B0002046BDE81040012100F057B810BD0000E4
:1013C0000004004005480188C90706D0011F0988AC
:1013D000C90702D04FF6FE71018070471008004027
:1013E00006480188C90708D0011F0988C90704D029
:1013F0004FF6FE71018000F0D9BF7047100C00401D
:101400000748018AC9070AD08189C90707D04FF662
:10141000FE71018203480068002800D00047704731
:10142000001000403800002010B5074C0121204674
:1014300000F0E0F8002806D00121204600F015F861
:1014400002490120087010BD001400406B0000200C
:101450000029018802D041F0800101E021F08001E3
:1014600001807047C94301827047C94301827047B8
:101470000029018802D041F0010101E021F00101C1
:10148000018070474B4910B5884202D10121C41434
:1014900086E0B0F1804F09D0474988420DD1012143
:1014A0000220FFF7C3FD0021022064E0012108466D
:1014B000FFF7BCFD002101205DE04049884206D1D4
:1014C00001210420FFF7B2FD0021042053E03C4934
:1014D000884206D101210820FFF7A8FD002108203D
:1014E00049E03849884206D101211020FFF79EFDCE
:1014F000002110203FE03449884206D101212020FC
:10150000FFF794FD0021202035E03049884202D1C8
:101510000121441444E02E49884202D10121CC0427
:101520003EE02C49884202D101210C0538E02A49CD
:10153000884202D101214C0532E02849884206D177
:1015400001214020FFF772FD0021402013E02449D3
:10155000884206D101218020FFF768FD002180200C
:1015600009E0204988420AD1841501212046FFF76D
:101570005DFD00212046BDE81040FFF757BD1A4928
:10158000884202D101210C040AE01849884202D1A4
:1015900001214C0404E0164988420AD101218C043F
:1015A0002046FFF75BFD2046BDE810400021FFF715
:1015B00055BD10BD002C0140000400400008004053
:1015C000000C0040001000400014004000340140B6
:1015D000004C014000500140005401400018004000
:1015E000001C004000200040004001400044014039
:1015F0000048014002460020138A92890B4202EA09
:10160000010202D0002A00D001207047002A8289FE
:1016100001D00A4300E08A438281704730B50288D6
:101620001B4C1C4DA0420DD0A8420BD0B0F1804FF6
:1016300008D0194B984205D0184B984202D0184B4D
:10164000984203D122F070034A881A43154B9842FE
:1016500006D0154B984203D022F44073CA881A432F
:1016600002808A8882850A880285A0420AD0A84220
:1016700008D00E4A904205D00D4A904202D00D4A41
:10168000904201D1097A01860121818230BD00009A
:10169000002C0140003401400004004000080040DC
:1016A000000C0040001000400014004000400140C9
:1016B00000440140004801407FB501210220FFF7AE
:1016C000A9FC40F21F100024ADF80400144DADF841
:1016D0000040ADF80640ADF8024069462846FFF7E5
:1016E0009DFF01212846FFF7BDFE01212846FFF797
:1016F000AFFE012211462846FFF788FF1D208DF816
:101700000C008DF80D4001218DF80E108DF80F1092
:1017100003A8FFF743FC01212846FFF7A9FE7FBD80
:10172000000400403EB5134C2046FFF7ABFE40F2EC
:10173000E731ADF804104720ADF800000021ADF806
:101740000610ADF8021069462046FFF767FF012139
:101750002046FFF787FE00212046FFF779FE012291
:1017600011462046FFF752FF00212046FFF780FE7A
:101770003EBD0000000C00407FB501212020FFF796
:1017800049FC41F61F40ADF8000040F2CF70002444
:10179000ADF804000F4DADF80240ADF806406946C3
:1017A0002846FFF73BFF012211462846FFF72EFF90
:1017B00001212846FFF75CFE37208DF80C008DF8DC
:1017C0000D4001208DF80E008DF80F0003A8FFF7E3
:1017D000E5FB7FBD0014004010B5084C40F22551D8
:1017E000204600F0C6F8002807D0204600F04EF949
:1017F000BDE81040C0B200F057B810BD004800402E
:1018000030B5012187B08804FFF704FC01210820CE
:10181000FFF718FC4FF48060ADF8100003208DF83E
:10182000120018201E4C8DF8130004A92046FFF763
:1018300097FAE114ADF8101004218DF8131004A9E3
:101840002046FFF78DFA00244FF4E1300090ADF808
:1018500008400C20134DADF80440ADF80A00ADF877
:101860000640ADF80C406946284600F0B9F8012260
:1018700040F22551284600F09BF827208DF81400EF
:101880008DF815408DF8164001208DF8170005A839
:10189000FFF784FB0121284600F05AF807B030BD5D
:1018A000000C014000480040124A10B5114654781F
:1018B0004B68591C022C03D0AA2806D1022454706C
:1018C000187051601178491C117011780A4B052964
:1018D00005D30024552808D0547053601470506804
:1018E000C01AC82800DD536010BD0120507000F000
:1018F0003DFBF2E7200000209600002070B50E4668
:101900000546002405E015F8010B00F005F8641CFD
:10191000A4B2B442F7D370BD70B5074C0546802120
:10192000204600F01FF80028F9D029462046BDE8DF
:10193000704000F0AFB800000048004010B5044609
:1019400002E0641CFFF7E8FF20780028F9D110BD01
:101950000029818902D041F4005101E021F40051B5
:10196000818170470246002012880A4200D001207F
:10197000704770B501F01F0501260024C1F3421322
:1019800006FA05F2012B0FD0022B0FD0838A4FEA03
:1019900011210088134206FA01F600EA060001D080
:1019A00000B10124204670BD8389F0E7038AEEE789
:1019B00010B5C1F3421301F01F040121A140012B16
:1019C00007D0022B07D01430002A026805D00A4342
:1019D00004E00C30F8E71030F6E78A43026010BDEF
:1019E00030B50446008A85B00D464CF6FF710840BC
:1019F000E98801432182A0894EF6F3110840A988A5
:101A00002A8911436A8902431143A181A08A4FF6B2
:101A1000FF410840A9890143A1826846FFF72AFBDC
:101A20001948844201D1039800E00298A189090471
:101A300000EBC00101EB0010296801D5490000E06E
:101A40008900B0FBF1F06422B0FBF2F109010B094F
:101A50006FF018056B4300EB8300A3891D044FF062
:101A6000320306D503EBC000B0FBF2F000F0070034
:101A700005E003EB0010B0FBF2F000F00F000843AC
:101A8000208105B030BD0000003801408088C0F3DF
:101A900008007047C1F308018180704702E008C860
:101AA000121F08C1002AFAD170477047002001E0D8
:101AB00001C1121F002AFBD170470720401EFDD232
:101AC00070470820401E80B2FCD270472DE9F041DB
:101AD000174C4FF480552560154E1023103E0322FD
:101AE00029463046FFF78AF925606714251D2F60C7
:101AF0001023032239463046FFF780F92F607D001E
:101B000025601023032229463046FFF777F9256028
:101B1000084DA4152C6007481023032221461038D5
:101B2000FFF76CF92C60BDE8F041FFF7C6BF00007D
:101B3000100C0140101401402DE9F35FDFF8A48080
:101B40004FF48047C8F80070DFF898B01023ABF16D
:101B5000100B032239465846FFF750F908F10404E8
:101B60007D1025601023032229465846FFF746F9C9
:101B70002560DFF87490A615C9F800601A48102394
:101B8000032231461038FFF739F9C9F800604FF4E5
:101B9000805AC4F800A0FFF790FFFFF78EFF00986F
:101BA00040F0800000F0B6F804230322394658467E
:101BB000FFF724F900F086F8019908702560FFF717
:101BC0007CFFFFF77AFFC8F800A0C8F80070042374
:101BD000032239465846FFF711F9C9F80060BDE8FD
:101BE000FC9F0000100C0140101401402DE9F05F33
:101BF000DFF8C8B04FF480750F4680465C46CBF8DE
:101C000000502E481023032229461038FFF7F6F81B
:101C100025602B4C2E0126602948102303223146D3
:101C20001038FFF7EBF826604FF4005904F1040A6E
:101C30004E465446CAF800902148102303223146EC
:101C40001038FFF7DBF826601D4804230322190330
:101C50001038FFF7D3F85E4600240BF1040B20E0A8
:101C6000CBF80050FFF729FFFFF727FF00F02AF815
:101C700008F80400CAF80090FFF723FFFFF721FFE0
:101C8000FFF71FFF3560FFF71CFFFFF71AFFFFF795
:101C900018FFFFF716FFFFF714FFFFF712FF641C92
:101CA000A4B2BC42DCD30648042303221903103833
:101CB000FFF7A4F83560BDE8F09F00001014014064
:101CC000100C01402DE9F047114FDFF84490FF253B
:101CD00000244FF40056A7F10408A9F10C093E6056
:101CE000FFF7EBFE6806000EC8F80060D9F8001098
:101CF000490402D540F0010501E020F00105FFF79D
:101D0000DCFE641CE4B2082CE9D32846BDE8F08769
:101D1000140C01402DE9F047DFF8389000244FF40F
:101D2000804705467E10A9F104084846C9F80060BE
:101D3000290600D540460760FFF7BFFE6806050E7E
:101D4000C8F80060FFF7B9FE641CE4B2082CECD3BD
:101D5000BDE8F087140C01402DE9F35FDFF89480B3
:101D60004FF48047C8F80070DFF888B01023ABF15B
:101D7000100B032239465846FFF740F808F10404D7
:101D80007D1025601023032229465846FFF736F8B8
:101D90002560DFF86490A615C9F800601648102386
:101DA000032231461038FFF729F8C9F800604FF4D4
:101DB000805AC4F800A0FFF780FEFFF77EFE00986F
:101DC00000F07F00FFF7A6FF0198FFF7A3FF256053
:101DD000FFF773FEFFF771FEC8F800A0C8F80070A7
:101DE0000423032239465846FFF708F8C9F8006073
:101DF000BDE8FC9F100C01401014014070B5054671
:101E0000AA20002307240FE0EA5C504000220606C7
:101E100002D584EA400000E04000521CD2B2C0B2B9
:101E2000082AF4D35B1CDBB28B42EDD370BD0000FB
:101E30002DE9F041464EAA20464C30705520707373
:101E400020462178FC220025407A022952D003DC6A
:101E500039B101296BD110E0F3294FD0FC2966D1AB
:101E600058E07070B2703CA0F2700068706032721E
:101E70007272B2723273658159E0A189012701B98A
:101E8000A781012801D0112851D1042000F03AF98E
:101E90003249A77111200A789AB10D7060723048EA
:101EA0000068D0F80110716081793172C179717266
:101EB0004079C0F38000F0726089401C608130730B
:101EC00005E060727560357275723573F572607A0F
:101ED0007070244FB07039462069FEF772F9FEF732
:101EE00057FAF07039466069FEF76BF9FEF750FA61
:101EF000B0721CE000F04CFA257018E07070F3200E
:101F0000B07019A1F0700968716030727072B072AF
:101F100030730CE07070B2700FA0F27000687060E7
:101F200032727272B2723273658100F019FA0E2148
:101F30000748FFF7E3FCA089002807D0401C80B2C7
:101F4000A081322802D9A58102202070BDE8F0814D
:101F50006003002044000020FCFCFCFC1400002076
:101F60001C0000200000C842F3F3F3F304490348C7
:101F7000086004494078087070470000960000200F
:101F80004000002044000020FEF767FFFFF7E6F85E
:101F9000FFF736FCFEF74CFD002873D03CA1002073
:101FA00000F086FAFEF705FDFEF7EBFCFEF738FCC5
:101FB000FEF797FCFEF7F7FCDFF8E8A00127DFF853
:101FC000E880DFF8E8903A4EDFF8E8B00025DAF86C
:101FD0000000544640060AD4C82000F070F920687A
:101FE000800604D4032000F08DF8334807700A21DE
:101FF0002E48FFF7EBF850B33560D8F8040044469C
:10200000401CC8F8040009212848FFF7F7FE99F89A
:1020100009104A46814214D1A1681C230878B3EB09
:10202000D00F0ED151F8010F0306C0F3072C43EA7D
:102030000C43C0F3074C43EA0C2343EA10600860EA
:10204000277000201554401CC0B20A28FAD330680B
:102050001A4988420AD93560FEF7A8FCFEF7A9FCA8
:10206000FEF7DEFBFEF73DFCFEF79DFC9BF8001043
:102070000029ACD08BF80050FFF7DAFE00F084F8AE
:10208000A5E7FFE70EA1002000F012FAFEE700002E
:10209000434D5432333030412072656164792052AF
:1020A0005800000008180140140000208C00002097
:1020B0003C0000206B0000204D00002080EE360028
:1020C000434D543233303041206E6F7420666F754B
:1020D0006E6421000A49012808D0022809D003288B
:1020E0000AD0042801D14002086070474FF4806094
:1020F000FAE74FF40070F7E74FF48050F4E7000080
:10210000141801400A49012808D0022809D00328E0
:102110000AD0042801D14002086070474FF4806063
:10212000FAE74FF40070F7E74FF48050F4E700004F
:10213000101801402DE9F04112484FF40071016080
:1021400005150560C6140660841404600D4F102345
:10215000143F03223846FEF751FE1023032229467E
:102160003846FEF74BFE1023032231463846FEF771
:1021700045FE21463846BDE8F04110230322FEF714
:102180003DBE0000141801402DE9F04100263546FF
:1021900034464FF47A770820FEF748FA06440020C8
:1021A000401C80B2B842FBD3641CE4B2322CF2D3A0
:1021B0004FF03208B6FBF8F600240F20FEF736FA8F
:1021C00005440020401C80B2B842FBD3641CE4B23A
:1021D000322CF2D3B5FBF8F43046FEF7D4F8114DAB
:1021E0002946FEF720F8FEF7E7F8DFF83C804FF0CD
:1021F000663632464346FEF754F8FEF7F0F80B4FCA
:1022000038612046FEF7BFF82946FEF70CF8FEF7C6
:10221000D3F832464346FEF744F8FEF7E0F878611B
:10222000BDE8F08100F07F4566660A40440000206A
:102230006421484340E000BF00BF00BF00BF00BFB3
:1022400000BF00BF00BF00BF00BF00BF00BF00BF96
:1022500000BF00BF00BF00BF00BF00BF00BF00BF86
:1022600000BF00BF00BF00BF00BF00BF00BF00BF76
:1022700000BF00BF00BF00BF00BF00BF00BF00BF66
:1022800000BF00BF00BF00BF00BF00BF00BF00BF56
:1022900000BF00BF00BF00BF00BF00BF00BF00BF46
:1022A00000BF00BF00BF00BF00BF00BF00BF00BF36
:1022B00000BF00BF00BF00BF401EBCD2704700B5CA
:1022C00000EB8000420002E00120FFF7B1FF521E48
:1022D000FAD200BD40E000BF00BF00BF00BF00BF9A
:1022E00000BF00BF00BF00BF00BF00BF00BF00BFF6
:1022F00000BF00BF00BF00BF00BF00BF00BF00BFE6
:1023000000BF00BF00BF00BF00BF00BF00BF00BFD5
:1023100000BF00BF00BF00BF00BF00BF00BF00BFC5
:1023200000BF00BF00BF00BF00BF00BF00BF00BFB5
:1023300000BF00BF00BF00BF00BF00BF00BF00BFA5
:1023400000BF00BF00BF00BF00BF00BF00BF00BF95
:1023500000BF00BF00BF00BF401EBCD270470000DE
:1023600010B5094C206880060DD43220FFF7A7FF76
:102370002068400607D40320FFF7C4FE034901206C
:1023800048728871087010BD081801404400002090
:1023900010B50320FFF79EFE0420FFF79BFE0248C6
:1023A00000214172817110BD4400002070B50024ED
:1023B000104E254606EBC400416871B156F8341042
:1023C00059B156F83410491E46F8341056F83410F6
:1023D00009B9406880476D1CEDB2641CE4B2102C52
:1023E000E8D3002D05D1BDE8704000210248FFF779
:1023F0003FB870BD60010020000C0040F0B52A4BD2
:10240000DFF8A8C01946D8790125401CC0B2D871A0
:102410001A7A89790CF1040E00240AB901290CD02A
:10242000CEF800501C72202835D31F48DC711E4E98
:10243000DA894079183622B126E0CCF800501D72B6
:10244000F1E7012928D1197901F080025A70490079
:102450001971D978491CC9B2D97008290AD1DC7020
:102460009978491CC9B29970775C1F710F2901D105
:10247000DD819C700221802A01D01AB104E0CCF8E1
:10248000001001E0CEF80010D989012904D12728D5
:1024900002D2401C5871F0BD2728FCD1DC815C7150
:1024A00030781871F0BD0000440000201008014091
:1024B00010B50C46202211460948FDF769FE20465A
:1024C000FDF778FE024621460548FDF74FFE044918
:1024D00000204875BDE810400846FFF72FBA0000FD
:1024E0006C0000204271CE1C425B1C1C0266EC1C7E
:1024F00070801408910202D0AEFA500000F410E28D
:10250000422B000195C12020E236190A9F4B292851
:10251000C04A05531000B40000010000020800008A
:10252000030000000000000100000900000000009E
:1025300000000063FF01001F10500E16000F9000F6
:102540001F043F7F64250008000000206C0000008D
:102550009C1A0008D02500086C0000200407000029
:10256000AC1A00080204060800000000010203047F
:102570000102030406070809000000000000000033
:102580008C000020000000009600002000000000E9
:10259000000000000000000000000000000000003B
:1025A0000000000000000000F301000040000000F7
:1025B000000000000000000000000000000000001B
:1025C000AAAAAAAAE2CCA659A659AA5A65654000A9
:0400000508000131BD
:00000001FF
